{
  "contractName": "TSCBank",
  "abi": [
    {
      "inputs": [],
      "stateMutability": "nonpayable",
      "type": "constructor"
    },
    {
      "anonymous": false,
      "inputs": [
        {
          "indexed": true,
          "internalType": "address",
          "name": "account",
          "type": "address"
        },
        {
          "indexed": false,
          "internalType": "uint256",
          "name": "amount",
          "type": "uint256"
        }
      ],
      "name": "Deposit",
      "type": "event"
    },
    {
      "anonymous": false,
      "inputs": [
        {
          "indexed": true,
          "internalType": "address",
          "name": "account",
          "type": "address"
        },
        {
          "indexed": false,
          "internalType": "uint256",
          "name": "amount",
          "type": "uint256"
        }
      ],
      "name": "Withdrawal",
      "type": "event"
    },
    {
      "inputs": [],
      "name": "owner",
      "outputs": [
        {
          "internalType": "address",
          "name": "",
          "type": "address"
        }
      ],
      "stateMutability": "view",
      "type": "function",
      "constant": true
    },
    {
      "inputs": [],
      "name": "deposit",
      "outputs": [],
      "stateMutability": "payable",
      "type": "function",
      "payable": true
    },
    {
      "inputs": [
        {
          "internalType": "uint256",
          "name": "_amount",
          "type": "uint256"
        }
      ],
      "name": "withdraw",
      "outputs": [],
      "stateMutability": "nonpayable",
      "type": "function"
    },
    {
      "inputs": [],
      "name": "getBalance",
      "outputs": [
        {
          "internalType": "uint256",
          "name": "",
          "type": "uint256"
        }
      ],
      "stateMutability": "view",
      "type": "function",
      "constant": true
    }
  ],
  "bytecode": "0x608060405234801561000f575f80fd5b503360015f6101000a81548173ffffffffffffffffffffffffffffffffffffffff021916908373ffffffffffffffffffffffffffffffffffffffff1602179055506106fb8061005d5f395ff3fe60806040526004361061003e575f3560e01c806312065fe0146100425780632e1a7d4d1461006c5780638da5cb5b14610094578063d0e30db0146100be575b5f80fd5b34801561004d575f80fd5b506100566100c8565b60405161006391906103d4565b60405180910390f35b348015610077575f80fd5b50610092600480360381019061008d919061041b565b61010b565b005b34801561009f575f80fd5b506100a86102b3565b6040516100b59190610485565b60405180910390f35b6100c66102d8565b005b5f805f3373ffffffffffffffffffffffffffffffffffffffff1673ffffffffffffffffffffffffffffffffffffffff1681526020019081526020015f2054905090565b5f811161014d576040517f08c379a00000000000000000000000000000000000000000000000000000000081526004016101449061051e565b60405180910390fd5b805f803373ffffffffffffffffffffffffffffffffffffffff1673ffffffffffffffffffffffffffffffffffffffff1681526020019081526020015f205410156101cc576040517f08c379a00000000000000000000000000000000000000000000000000000000081526004016101c390610586565b60405180910390fd5b805f803373ffffffffffffffffffffffffffffffffffffffff1673ffffffffffffffffffffffffffffffffffffffff1681526020019081526020015f205f82825461021791906105d1565b925050819055503373ffffffffffffffffffffffffffffffffffffffff166108fc8290811502906040515f60405180830381858888f19350505050158015610261573d5f803e3d5ffd5b503373ffffffffffffffffffffffffffffffffffffffff167f7fcf532c15f0a6db0bd6d0e038bea71d30d808c7d98cb3bf7268a95bf5081b65826040516102a891906103d4565b60405180910390a250565b60015f9054906101000a900473ffffffffffffffffffffffffffffffffffffffff1681565b5f341161031a576040517f08c379a000000000000000000000000000000000000000000000000000000000815260040161031190610674565b60405180910390fd5b345f803373ffffffffffffffffffffffffffffffffffffffff1673ffffffffffffffffffffffffffffffffffffffff1681526020019081526020015f205f8282546103659190610692565b925050819055503373ffffffffffffffffffffffffffffffffffffffff167fe1fffcc4923d04b559f4d29a8bfc6cda04eb5b0d3c460751c2402c5c5cc9109c346040516103b291906103d4565b60405180910390a2565b5f819050919050565b6103ce816103bc565b82525050565b5f6020820190506103e75f8301846103c5565b92915050565b5f80fd5b6103fa816103bc565b8114610404575f80fd5b50565b5f81359050610415816103f1565b92915050565b5f602082840312156104305761042f6103ed565b5b5f61043d84828501610407565b91505092915050565b5f73ffffffffffffffffffffffffffffffffffffffff82169050919050565b5f61046f82610446565b9050919050565b61047f81610465565b82525050565b5f6020820190506104985f830184610476565b92915050565b5f82825260208201905092915050565b7f5769746864726177616c20616d6f756e74206d757374206265206d6f726520745f8201527f68616e20302e0000000000000000000000000000000000000000000000000000602082015250565b5f61050860268361049e565b9150610513826104ae565b604082019050919050565b5f6020820190508181035f830152610535816104fc565b9050919050565b7f496e73756666696369656e742062616c616e63652e00000000000000000000005f82015250565b5f61057060158361049e565b915061057b8261053c565b602082019050919050565b5f6020820190508181035f83015261059d81610564565b9050919050565b7f4e487b71000000000000000000000000000000000000000000000000000000005f52601160045260245ffd5b5f6105db826103bc565b91506105e6836103bc565b92508282039050818111156105fe576105fd6105a4565b5b92915050565b7f4465706f73697420616d6f756e74206d757374206265206d6f7265207468616e5f8201527f20302e0000000000000000000000000000000000000000000000000000000000602082015250565b5f61065e60238361049e565b915061066982610604565b604082019050919050565b5f6020820190508181035f83015261068b81610652565b9050919050565b5f61069c826103bc565b91506106a7836103bc565b92508282019050808211156106bf576106be6105a4565b5b9291505056fea2646970667358221220a6dc8cd23f1a8ec60432407e4b32252f55fdc30c3f47ff5a0457a95711b931ba64736f6c63430008150033",
  "immutableReferences": {},
  "source": "// SPDX-License-Identifier: MIT\npragma solidity ^0.8.19;\n\n/**\n * @title TSCBank\n * @dev A simple bank contract to deposit, withdraw, and check balance.\n */\ncontract TSCBank {\n    // Mapping from an address to their balance in Wei\n    mapping(address => uint256) private balances;\n\n    // The owner of the contract\n    address public owner;\n\n    // Events to log important actions\n    event Deposit(address indexed account, uint256 amount);\n    event Withdrawal(address indexed account, uint256 amount);\n\n    /**\n     * @dev Sets the contract creator as the owner.\n     */\n    constructor() {\n        owner = msg.sender;\n    }\n\n    /**\n     * @dev Allows users to deposit Ether. The amount is sent with the transaction.\n     */\n    function deposit() public payable {\n        require(msg.value > 0, \"Deposit amount must be more than 0.\");\n        balances[msg.sender] += msg.value;\n        emit Deposit(msg.sender, msg.value);\n    }\n\n    /**\n     * @dev Allows users to withdraw a specified amount of Ether.\n     * @param _amount The amount of Wei to withdraw.\n     */\n    function withdraw(uint256 _amount) public {\n        require(_amount > 0, \"Withdrawal amount must be more than 0.\");\n        require(balances[msg.sender] >= _amount, \"Insufficient balance.\");\n\n        balances[msg.sender] -= _amount;\n        payable(msg.sender).transfer(_amount);\n        emit Withdrawal(msg.sender, _amount);\n    }\n\n    /**\n     * @dev Returns the current balance of the message sender.\n     */\n    function getBalance() public view returns (uint256) {\n        return balances[msg.sender];\n    }\n}\n",
  "sourcePath": "/root/TSC Bank Smart Contract/contracts/TSCBank.sol",
  "compiler": {
    "name": "solc",
    "version": "0.8.21+commit.d9974bed.Emscripten.clang"
  },
  "schemaVersion": "3.4.16",
  "updatedAt": "2025-08-22T12:52:58.538Z",
  "networkType": "ethereum",
  "devdoc": {
    "details": "A simple bank contract to deposit, withdraw, and check balance.",
    "kind": "dev",
    "methods": {
      "constructor": {
        "details": "Sets the contract creator as the owner."
      },
      "deposit()": {
        "details": "Allows users to deposit Ether. The amount is sent with the transaction."
      },
      "getBalance()": {
        "details": "Returns the current balance of the message sender."
      },
      "withdraw(uint256)": {
        "details": "Allows users to withdraw a specified amount of Ether.",
        "params": {
          "_amount": "The amount of Wei to withdraw."
        }
      }
    },
    "title": "TSCBank",
    "version": 1
  },
  "userdoc": {
    "kind": "user",
    "methods": {},
    "version": 1
  }
}